:020000040800F2
:1000000020040020DD010008990A0008950A000874
:10001000970A0008E9020008190B00080000000018
:10002000000000000000000000000000BD0A000801
:10003000EB02000800000000BB0A0008BF0A00082D
:10004000F7010008F7010008F7010008F7010008B0
:10005000F7010008F7010008F7010008F7010008A0
:10006000F7010008F7010008F7010008F701000890
:10007000F7010008F7010008F7010008F701000880
:10008000F7010008F7010008F70100080000000070
:10009000000000000000000000000000F701000860
:1000A000F7010008F7010008F7010008F701000850
:1000B000000000000000000000000000F701000840
:1000C000F7010008F7010008F7010008F701000830
:1000D000F7010008F7010008F70100080000000020
:1000E000F7010008F7010008000000000000000010
:1000F000000000000000000000000000F701000800
:100100000000000000000000F701000800000000EF
:100110000000000000000000F701000800000000DF
:10012000F7010008F7010008F7010008F7010008CF
:10013000F7010008000000000000000000000000BF
:1001400000000000000000000000000000000000AF
:10015000F7010008F7010008F7010008F70100089F
:10016000000000000000000000000000000000008F
:10017000000000000000000000000000000000007F
:10018000F7010008F701000800000000000000006F
:1001900000000000F701000800000000000000005F
:1001A000000000000000000000000000000000004F
:1001B000000000000000000000000000F70100083F
:1001C000F7010008F7010008DFF80CD000F07AF81A
:1001D00000480047C50F000820040020064880475B
:1001E00006480047FEE7FEE7FEE7FEE7FEE7FEE71C
:1001F000FEE7FEE7FEE7FEE7C50A0008C9010008C2
:100200002DE9F05F0546002092469B46884606464B
:10021000814640241BE0284641464746224600F0DE
:1002200041F853465A46C01A914110D31146184618
:10023000224600F028F82D1A67EB01084F462246A7
:100240000120002100F01FF817EB00094E41201E8D
:10025000A4F10104DFDC484631462A464346BDE8A6
:10026000F09FD2B201E000F8012B491EFBD270478B
:100270000022F6E710B513460A4604461946FFF772
:10028000F0FF204610BD202A04DB203A00FA02F1DC
:10029000002070479140C2F1200320FA03F3194374
:1002A00090407047202A04DB203A21FA02F0002116
:1002B000704721FA02F3D040C2F120029140084376
:1002C00019467047064C074D06E0E06840F0010310
:1002D00094E8070098471034AC42F6D3FFF778FF54
:1002E00090110008B0110008FEE7704770B5044691
:1002F00000F0CEF80546601C02D0044800780444A3
:1003000000F0C6F8401BA042FAD370BD0C000020DC
:100310002DE9F84FDFF84CB100224FF001084FF003
:10032000030A4FF00F090BF1040E00BF0B6808FA27
:1003300002F42340A3427DD14D68022D01D0122D3D
:100340000ED1D50800EB850CDCF820505607F70ECF
:1003500009FA07F6B5430E69BE402E43CCF820607B
:10036000066855000F790AFA05FC07F0030726EA2C
:100370000C06AF40374307604E68012E05D0022EB1
:1003800003D0112E01D0122E0ED18768CE6827EA35
:100390000C07AE403E4386604668A6430C79C4F322
:1003A0000014944034434460C4688E6824EA0C040A
:1003B000AE402643C6604C68E4004DD52A4C256803
:1003C00045F480452560246822F0030504F4804448
:1003D0000094264C2E19D6F8084895072F0F09FAD5
:1003E00007F5AC43224DA84201D100250AE0214D7A
:1003F000A84201D1012505E01F4DA84201D10225E7
:1004000000E00725BD402543C6F80858DBF800404A
:100410005D464E689C43F60300D51C432C60DEF815
:10042000004075464E689C43B60300D51C432C60C3
:100430000C4D00E010E008352C684E689C43F60235
:1004400000D51C432C60074D0C352C684E689C432E
:10045000B60200D51C432C60521C102AFFF466AF74
:10046000BDE8F88F003C01404438024000300140B4
:1004700000000240000402400008024000690840F9
:1004800000D0012070470AB1816170470904FBE781
:1004900001488068704700000C0000200248816815
:1004A00002781144816070470C0000200B4810B5A1
:1004B000016841F400710160016841F480610160EC
:1004C000016841F480710160032000F063F80020AE
:1004D00000F006F800F024F8002010BD003C0240B7
:1004E00070B50D4D04464FF47A712878B1FBF0F0E9
:1004F0000A490968B1FBF0F000F0B8FA48B9102CCD
:1005000007D200222146501E00F024F800206C6023
:1005100070BD012070BD00000C00002018000020FC
:100520000B4882B0016841F480410160006800F42A
:10053000804000900648001F016841F08051016032
:10054000006800F080500090072002B000F022B850
:1005500044380240F0B40E4B1B680C46C3F3022330
:10056000C3F10705042D00D90425191D072901D25F
:10057000002300E0DB1E012606FA05F1491E21409A
:1005800099409E40761E16403143F0BC00F085BA7B
:100590000CED00E0064900F0070208684FF6FF0383
:1005A000184040EA0220034A1043086070470000E8
:1005B0000CED00E00000FA052DE9F0470E460500BD
:1005C00065D0DFF81481D8F80000F7B200F00F0012
:1005D000B04207D288F80070D8F8000000F00F0091
:1005E000B04254D128683D4C810712D5400703D54D
:1005F000206840F4E05020602878000703D5206888
:1006000040F4604020602068A96820F0F0000843B2
:1006100020602878C0072DD0304968680839012843
:1006200012D0022813D0032811D0096889070029A5
:100630002DDA216821F0030101432160FFF728FF33
:10064000814641F2883A0EE009688903EFE70968BC
:100650008901ECE7FFF71CFFA0EB0901514502D926
:100660000320BDE8F0872068696800F00C00B0EB5B
:10067000810FEFD1D8F80010404601F00F01B142D0
:1006800007D90770006800F00F00B04201D00120C8
:10069000E7E72878400705D52068E96820F4E050AE
:1006A000084320602878000706D52068296920F4CF
:1006B000604040EAC100206000F016F82168084A56
:1006C000C1F30311515CC840064908600020FFF7E0
:1006D00007FF0020C5E70000003C02400838024048
:1006E0008011000818000020154810B5006810F0AF
:1006F0000C02144813D04110042A0FD0082A0ED13E
:100700000F4C241F2268236802F03F025B0207D5CA
:100710002068C0F38810A0FB010106E0084610BD68
:100720002168C1F38811A1FB00010023FFF768FDD8
:100730002168C1F30141491C4900B0FBF1F010BD33
:10074000083802400024F4002DE9F84F05460078EF
:10075000DFF800B3C04CC0074AD0DBF800105846A1
:10076000C1F38101012908D00068C0F3810002288B
:100770000AD1201D0068400206D52068800337D5C5
:100780006868002872D033E06868B0F5803F10D008
:10079000B0F5A02F206810D020F4803020602068B1
:1007A00020F4802020606868A8B1FFF771FE06463B
:1007B0000DE0206840F48030F4E740F480202060B1
:1007C000F7E700BFFFF764FE801B64286FD820683E
:1007D0008003F7D50CE0FFF75BFE064605E000BF9F
:1007E000FFF756FE801B6428F0D820688003F7D4FA
:1007F0002878DFF8688280074FF0000940D5DBF8E1
:100800000010584611F00C0F09D00068C0F38100A9
:1008100002280BD18F48001F0068400206D42068D0
:10082000800715D5E868012820D111E0E868B8B143
:100830000120C8F80000FFF72BFE064605E000BFC8
:10084000FFF726FE801B0228C0D820688007F7D556
:100850002068296920F0F80040EAC10020600FE01C
:10086000C8F80090FFF714FE064606E0EFE000BF70
:10087000FFF70EFE801B022819D820688007F7D4E6
:100880002878000722D5734E754869696C3679B1AE
:1008900001210160FFF7FCFD074604E0FFF7F8FDCA
:1008A000C01B022803D830688007F7D50EE089E026
:1008B000C0F80090FFF7ECFD074604E0FFF7E8FD05
:1008C000C01B02287ED830688007F7D428784007FC
:1008D00068D5DFF880A100270AF1380ADAF80000AD
:1008E000C0000BD4DAF8001041F08051CAF80010B3
:1008F000DAF80000012700F080500090594E30686F
:10090000C00510D4306840F480703060FFF7C0FD3F
:10091000009005E0FFF7BCFD0099401A022851D86D
:100920003068C005F6D54B4EA868683601280FD050
:100930000528306810D020F001003060306820F0C9
:1009400004003060A868B8B1FFF7A2FD00900FE086
:10095000306840F00100F4E740F004003060F7E751
:10096000FFF796FD0099411A41F28830814266D81E
:1009700030688007F4D50EE0FFF78AFD009007E0AD
:10098000FFF786FD0099411A41F28830814256D81E
:1009900030688007F4D42FB1DAF8001021F08051CC
:1009A000CAF80010A869D0B3DBF80010C1F38101C8
:1009B00002294CD00228484607D0C8F86000FFF74B
:1009C00067FD00E03BE005463CE04746C8F86000B4
:1009D000FFF75EFD064604E0FFF75AFD801B022884
:1009E0002DD820688001F7D4F5E907010843E968AC
:1009F0001D4A490802EB0141AA6841EA82110843F5
:100A0000297C40EA0160297D40EA01711148001FFC
:100A1000016001203866FFF73BFD054605E014E064
:100A2000FFF736FD401B022809D820688001F7D562
:100A30000BE000BFFFF72CFD401B022802D903206A
:100A4000BDE8F88F20688001F4D40020F8E7012089
:100A5000F6E7000008380240003802400000474234
:100A6000800E4742007000400000FFFF10B5401E9E
:100A7000B0F1807F01D3012010BD4FF0E024606110
:100A80000F21601700F009F80020A0610720206105
:100A9000002010BDFEE7FEE770470907090E002899
:100AA00006DA00F00F0000F1E02080F8141D704716
:100AB00000F1E02080F80014704770477047FFF79E
:100AC000EDBC00001048016841F4700101600F485E
:100AD000016841F0010101600C4A002108321160F7
:100AE00002680B4B1A400260031D0A4A1A60026832
:100AF00022F48022026005480C3001600249580649
:100B0000803908607047000088ED00E0003802403E
:100B1000FFFFF6FE10300024FEE7000030B593B072
:100B200034216846FFF7A4FB14210DA8FFF7A0FBB2
:100B300019480025016841F080510160006800F00B
:100B4000805012901548016841F4404101600068EE
:100B5000022400F4404012900120039010200490E1
:100B6000009406940820CDE907506420CDE90904DB
:100B70000420CDE90B046846FFF7E6FD0DA90F2020
:100B800081E83100E002CDE9100503210DA8FFF74F
:100B900013FD13B030BD000040380240007000402B
:100BA0008831817100F021B938B501F2E73242F69F
:100BB000F7239A4245D20024002902DA4FF00104BB
:100BC00000E001DCC1F100014FF47A7291FBF2F315
:100BD0008DF8003091FBF2F302FB13134FF0640227
:100BE00093FBF2F38DF8013091FBF2F302FB131249
:100BF0004FF00A0392FBF3F28DF8022091FBF3F21F
:100C000003FB12118DF803106A464FF0000144B93E
:100C1000545C9CB9535401F10101C9B20329F7D3C3
:100C20000CE0545C34B95418647814B10B23535459
:100C300004E05354491CC9B20329F2D3114600F011
:100C4000D7F838BD38B500226C468B5C83548B5C7A
:100C5000C5792B44A354521CD2B2042AF5D32146A1
:100C600000F022F938BD4254C3791A4452B200F060
:100C7000F1B838B58DF800108DF80120049C8DF87E
:100C800002308DF803406946FFF7DCFF38BD38B508
:100C900063291ED8632A1CD80A230A2902D28DF898
:100CA000003003E0B1FBF3F48DF80040B1FBF3F446
:100CB00003FB14118DF80110B2FBF3F18DF8021053
:100CC000B2FBF3F103FB11218DF80310694600F02C
:100CD0008FF838BD2DE9F04180468EB01E460020C9
:100CE000034601AC2354401CC0B20428FAD30020B0
:100CF00004E00D5C2718401C3D71C0B29042F8D34F
:100D0000151DE8B2083202E02354401CC0B29042E4
:100D1000FAD300270DE0E019C1780091837842787A
:100D2000E15D4046FFF7A5FF3046FFF7DFFA7F1C85
:100D3000FFB2AF42EFD90EB0BDE8F08110B5044666
:100D4000818980680022FFF79EFBC720401EFDD2EC
:100D5000A18A00222069FFF796FBC620401EFDD223
:100D6000A1890122A068FFF78EFBC620401EFDD29C
:100D7000A18A2069BDE810400122FFF784BB10B5AD
:100D800004467F22002100F049F87F2201212046FD
:100D900000F044F87F220221204600F03FF87F2235
:100DA0000321204600F03AF8002020706070A07007
:100DB000E07010BD01B18021C17100F016B810B50E
:100DC0000446818980680122FFF75DFBA18A012228
:100DD0002069FFF758FBC820401EFDD2A18A206978
:100DE000BDE810400022FFF74EBB0146FFF72ABFC7
:100DF000F8B5094B00226C468D5C5D5D85548D5CB9
:100E0000C6795D5D3544A554521CD2B2042AF3D391
:100E1000214600F049F8F8BD00000020054B30B431
:100E20009C5C44549A5CC37930BC1A4452B200F0C2
:100E300011B800000000002038B58DF800108DF8C2
:100E40000120049C8DF802308DF803406946FFF7BD
:100E5000CFFF38BD70B516460D460446FFF7AFFF0D
:100E60004421204600F04DF82046FFF767FF20465A
:100E7000FFF7A5FF45F0C00041B2204600F041F861
:100E80003146204600F03DF82046FFF757FF204648
:100E9000FFF795FF94F90610204600F032F820463F
:100EA000BDE87040FFF74ABF70B50E460546FFF734
:100EB00086FF4021284600F024F82846FFF73EFF31
:100EC0002846FFF77CFF95F90510284600F019F831
:100ED00000243157284600F014F8641CE4B2042CB6
:100EE000F7D32846FFF72AFF2846FFF768FF95F952
:100EF0000610284600F005F82846BDE87040FFF7C8
:100F00001DBF70B50E4604460025A1890022A068C9
:100F1000FFF7B9FAF007A18A206901D0012200E0A9
:100F20000022FFF7B0FA7610C620401EFDD2A1893C
:100F30000122A068FFF7A7FAC620401EFDD26D1C53
:100F4000EDB2082DE1D3A1890022A068FFF79BFA3A
:100F5000C620401EFDD2A18A00222069FFF793FA25
:100F6000A18A2069FFF78AFA0028F9D1A18A012213
:100F70002069FFF788FAA1890122A068FFF783FAA8
:100F8000C620401EFDD2A189A068BDE870400022A5
:100F9000FFF779BA10B5029C816082810361848277
:100FA000C021417110BD02E008C8121F08C1002A0B
:100FB000FAD170477047002001E001C1121F002ADA
:100FC000FBD1704790B0FFF771FAFFF7A7FD14212E
:100FD00009A8FFF74DF963480026016841F00401B4
:100FE00001600068604C00F004000090324603216C
:100FF0002046FFF748FA03251120CDE909500120CA
:10100000CDE90B0609A92046FFF782F90220234605
:1010100000900122194601A8FFF7BCFF01A8FFF7C5
:10102000AEFE032101A8FFF7BBFD504C42F20F7644
:10103000214601A8FFF7B8FD0520FFF757F9641C0A
:10104000B442F5DD012101A8FFF7B4FE032204211B
:1010500001A8FFF71CFE4FF47A763046FFF746F9F9
:10106000002101A8FFF7A6FE1E220C2101A8FFF710
:101070000EFE3046FFF73AF9012101A8FFF79AFE6C
:101080001F220C2101A8FFF702FE3046FFF72EF9C0
:10109000002101A8FFF78EFE02230122002101A8F2
:1010A0000095FFF7C9FE3046FFF720F91F2000909A
:1010B00039237F22772101A8FFF7DBFD3046FFF7B8
:1010C00015F92BA00EA900680E9001A8FFF790FE5D
:1010D0003046FFF70BF927A00FA900680F9001A871
:1010E000FFF7B0FD3046FFF701F90822002101A803
:1010F000FFF794FE0922012101A8FFF78FFE304679
:10110000FFF7F4F87722022101A8FFF7ACFD79225E
:10111000032101A8FFF7A7FD3046FFF7E7F80024F9
:101120007510214601A8FFF73BFD2846FFF7DEF8C2
:10113000641CE4B2072CF4D9032101A8FFF730FDA9
:1011400001A8FFF71CFE3046FFF7D0F80AA02B4697
:10115000D0E90010CDE90710082207A901A8FFF780
:10116000B9FDFEE7303802400008024019FCFFFFDD
:101170000405060779713D761F79153F0079371F01
:101180000000000000000000010203040607080937
:10119000B0110008000000201C000000A60F00088D
:1011A000CC1100081C00002004040000B60F000849
:1011B0003F065B4F666D7D077F6F004001000000BA
:0C11C00010000000000000000024F400FB
:04000005080001C925
:00000001FF
